:100000000C9463000C94C8070C94A1070C948B000B
:100010000C948B000C948B000C948B000C948B0034
:100020000C948B000C948B000C948B000C948B0024
:100030000C948B000C948B000C948B000C948B0014
:100040000C9457070C948B000C9415080C94EF0734
:100050000C948B000C948B000C948B000C948B00F4
:100060000C948B000C948B000000000024002700EF
:100070002A0000000000250028002B0000000000DE
:1000800023002600290004040404040404040202DA
:100090000202020203030303030301020408102007
:1000A0004080010204081020010204081020000012
:1000B0000008000201000003040700000000000027
:1000C00000004708170B11241FBECFEFD8E0DEBF9A
:1000D000CDBF22E0A8ECB1E001C01D92AC3AB2075E
:1000E000E1F711E0A0E0B1E0E4EDFBE102C0059032
:1000F0000D92A83CB107D9F710E0C2E6D0E004C0E9
:100100002197FE010E94E50BC136D107C9F70E9475
:1001100011090C94DD0D0C9400008091A0029091C7
:10012000A1028230910538F0880F991F880F991F1E
:1001300005970197F1F7089581E0809390028093ED
:100140008F028091870290918802A0918902B091DC
:100150008A0280937F0290938002A0938102B093E1
:10016000820280919B0290919C02019741F410922F
:100170007F021092800210928102109282020895F2
:10018000E0918B02F0918C02309709F00994089568
:10019000833081F028F4813099F08230A9F00895FD
:1001A0008730A9F08830C9F08430B1F480918000A4
:1001B0008F7D03C0809180008F77809380000895A9
:1001C00084B58F7784BD089584B58F7DFBCF8091F2
:1001D000B0008F778093B00008958091B0008F7D3C
:1001E000F9CFCF93DF93282F30E0F901E255FF4F8D
:1001F0008491F901E656FF4FD491F901EA57FF4F78
:10020000C491CC23A1F081110E94C800EC2FF0E032
:10021000EE0FFF1FE458FF4FA591B491EC91ED2331
:1002200081E090E009F480E0DF91CF91089580E0D3
:1002300090E0FACF1F93CF93DF93282F30E0F9019E
:10024000E255FF4F8491F901E656FF4FD491F90131
:10025000EA57FF4FC491CC23A9F0162F81110E94B9
:10026000C800EC2FF0E0EE0FFF1FEE58FF4FA591F6
:10027000B4918FB7F894EC91111108C0D095DE239A
:10028000DC938FBFDF91CF911F910895DE2BF8CFC4
:10029000CF93DF9390E0FC01E656FF4F24918A57FD
:1002A0009F4FFC0184918823C9F090E0880F991F2B
:1002B000FC01E859FF4FA591B491FC01EE58FF4FA6
:1002C000C591D49161110DC09FB7F8948C91209580
:1002D00082238C938881282328839FBFDF91CF912D
:1002E0000895623051F49FB7F8943C91822F809525
:1002F00083238C93E8812E2BEFCF8FB7F894EC916A
:100300002E2B2C938FBFEACFCF93DF93CDE9D2E092
:1003100061E089810E9448010E948D0060E088812F
:100320000E9448010E948D0060E089810E9448017E
:10033000DF91CF910C948D000F931F93CF93DF9398
:10034000D82FC8E061E080919D020E9448010E9480
:100350008D000D2F10E060E0D0FF61E080919E02E3
:100360000E9448010E948D0060E080919D020E94E1
:1003700048010E948D0015950795D02FC15011F7A7
:1003800061E080919D020E94480160E080919E02A0
:100390000E9448010E948D0060E080919D020E94B1
:1003A00048010E948D0080919E020E94F100C82F9A
:1003B000811105C061E080919E020E9448010E9467
:1003C0008D0061E080919D020E9448010E948D0095
:1003D00081E0C11101C080E0DF91CF911F910F91A9
:1003E000089561E080919E020E9448010C948D0066
:1003F0000F931F93CF93DF938C010E94F10180E450
:100400000E949C010E9484010E94F10180EC0E94E4
:100410009C01E8010C5F1F4F89910E949C01C0174D
:10042000D107D1F70E9484010E94F10180919F02BF
:100430008F7080580E949C01DF91CF911F910F9186
:100440000C948401BF92CF92DF92EF92FF920F93B0
:100450001F93CF93DF9300D000D0CDB7DEB7FB0161
:1004600030E087FF02C0819531E0309759F52111C6
:1004700029C019821A821B828FE38C83442381F066
:10048000FE0131969E012B5F3F4F9191DF01119745
:10049000842F8078892B8C93440FE217F307A9F7F8
:1004A000CE0101960E94F8010F900F900F900F90CF
:1004B000DF91CF911F910F91FF90EF90DF90CF9040
:1004C000BF9008958E010F5F1F4F6E0193E0C91A10
:1004D000D108E82E880FFF0880E4B82ECF01B701BD
:1004E0000E949B0B582F81110DC0309759F4211198
:1004F00009C0D80113961C92332379F0F801B38216
:1005000030E00BC0855E9E4FDC018C91D8011396C4
:100510008C93511102C0EF2B79F3FB0101501109AB
:10052000C016D106D9F6AACF3FB7F8948091D6016C
:100530009091D701A091D801B091D90126B5A89B7F
:1005400005C02F3F19F00196A11DB11D3FBFBA2F65
:10055000A92F982F8827BC01CD01620F711D811D25
:10056000911D42E0660F771F881F991F4A95D1F7AA
:1005700008958F929F92AF92BF92CF92DF92EF92A7
:10058000FF924B015C010E9494026B017C010E946E
:1005900094026C197D098E099F09683E734081059C
:1005A0009105A8F321E0821A9108A108B10888EE0C
:1005B000C80E83E0D81EE11CF11C81149104A10433
:1005C000B10429F7FF90EF90DF90CF90BF90AF90EC
:1005D0009F908F9008950895AF92BF92CF92DF922F
:1005E000EF92FF920F931F93CF93DF936C017B01E8
:1005F0008B01040F151FEB015E01AE18BF08C01779
:10060000D10759F06991D601ED91FC910190F081EB
:10061000E02DC6010995892B79F7C501DF91CF91AE
:100620001F910F91FF90EF90DF90CF90BF90AF9010
:100630000895FC01538D448D252F30E0842F90E0E8
:10064000821B930B541710F0CF96089501970895CD
:10065000FC01918D828D981761F0A28DAE0FBF2F96
:10066000B11D5D968C91928D9F5F9F73928F90E0EC
:1006700008958FEF9FEF0895FC01918D828D98175B
:1006800031F0828DE80FF11D858D90E008958FEF98
:100690009FEF0895FC01918D228D892F90E0805C61
:1006A0009F4F821B91098F73992708958AED91E0DE
:1006B0000E944A0321E0892B09F420E0822F08954B
:1006C00080E090E0892B29F00E94560381110C9460
:1006D00000000895FC01A48DA80FB92FB11DA35AE5
:1006E000BF4F2C91848D90E001968F739927848F52
:1006F000A689B7892C93A089B1898C918370806475
:100700008C93938D848D981306C00288F389E02D15
:1007100080818F7D80830895EF92FF920F931F93C6
:10072000CF93DF93EC0181E0888F9B8D8C8D9813A4
:100730001AC0E889F989808185FF15C09FB7F894B0
:10074000EE89FF896083E889F989808183708064FC
:1007500080839FBF81E090E0DF91CF911F910F9147
:10076000FF90EF900895F62E0B8D10E00F5F1F4F56
:100770000F731127E02E8C8D8E110CC00FB607FC65
:10078000FACFE889F989808185FFF5CFCE010E94F3
:100790006A03F1CFEB8DEC0FFD2FF11DE35AFF4FF4
:1007A000F0829FB7F8940B8FEA89FB898081806281
:1007B000CFCFCF93DF93EC01888D8823B9F0AA893E
:1007C000BB89E889F9898C9185FD03C0808186FD0C
:1007D0000DC00FB607FCF7CF8C9185FFF2CF80815B
:1007E00085FFEDCFCE010E946A03E9CFDF91CF9163
:1007F000089560E088E00E941A0160E087E00C94B0
:100800001A01FC0101900020E9F73197AF01481B64
:10081000590BBC018AED91E00C94EC028F929F92EF
:10082000AF92BF920F931F93CF93DF93CDB7DEB7F5
:10083000A1970FB6F894DEBF0FBECDBF19A242300C
:1008400008F44AE08E010F5D1F4F842E912CB12CCD
:10085000A12CA50194010E94C30BE62FB901CA0186
:10086000EA30F4F4E05DD801EE938D01232B242BC4
:10087000252B79F790E080E0109719F0CD010E94C8
:100880000104A1960FB6F894DEBF0FBECDBFDF9175
:10089000CF911F910F91BF90AF909F908F9008952F
:1008A000E95CE1CFCF93DF93BC01990F880B990BE3
:1008B0004AE00E940E04EC018DE391E00E940104E5
:1008C0008C0F9D1FDF91CF910895CF93DF930E94EE
:1008D0000104EC018DE391E00E9401048C0F9D1F47
:1008E000DF91CF910895CF93DF9300D000D0CDB7A3
:1008F000DEB719821A821B821C82CE0101960E94E9
:10090000F8010E949C0080910401811131C00E9475
:100910009C000E94F90380E491E00E9465048091AC
:10092000CA019091CB018031910589F487E191E072
:100930000E94F8018091040191E0892780930401CD
:100940000F900F900F900F90DF91CF910895BC0101
:1009500097FF04C066277727681B790B97FD06C0B1
:100960008AE020E040E00E942202E4CF86EFF9CF47
:1009700080910401882309F44CC08091CA019091B0
:10098000CB0140970CF045C08BE491E00E946504D8
:100990002091CA0180E595E090938E0280938D02AC
:1009A00082E090E090939C0280939B022C3308F0AD
:1009B0002BE330E0A0E6BAEE0E948C0B60937F023E
:1009C00070938002809381029093820260938702E9
:1009D000709388028093890290938A0260938302C5
:1009E00070938402809385029093860288EE93E050
:1009F000A0E0B0E08093770290937802A093790210
:100A0000B0937A028AEE96E090938C0280938B02E8
:100A100091CF80910401882309F48CCF8091CA0181
:100A20009091CB01409709F085CF85E591E00E9438
:100A3000650480E595E090938E0280938D0282E0BC
:100A400090E090939C0280939B0280E09CE5A6E25C
:100A5000B5E080937F0290938002A0938102B093CF
:100A600082028093870290938802A0938902B093B8
:100A70008A028093830290938402A0938502B093AC
:100A8000860288EE93E0A0E0B0E080937702909336
:100A90007802A0937902B0937A0285EC96E0B4CF05
:100AA00083E691E00E94650481E0809304010E9446
:100AB0009C000E94F9038091CA019091CB01892B7F
:100AC00021F08BE091E00C94F80183E191E0FBCF01
:100AD000CF93DF93682F70E090E080E04AE00E94BF
:100AE0000E04EC018DE391E00E9401048C0F9D1F28
:100AF000DF91CF9108950F931F93CF93DF93EC0174
:100B000088819981009759F02A813B812617370700
:100B100030F081E0DF91CF911F910F9108958B010B
:100B20006F5F7F4F0E94100D009759F09983888363
:100B30001B830A832C813D81232B59F7FC011082F2
:100B4000E8CF80E0E7CFEF92FF920F931F93CF9310
:100B5000DF93EC017B01FB0101900020E9F7319765
:100B60008F01061B170BB8010E947B052881398174
:100B7000811113C02115310519F0C9010E94870C9C
:100B8000198218821D821C821B821A82DF91CF91EA
:100B90001F910F91FF90EF9008951D830C83B70173
:100BA000C901DF91CF911F910F91FF90EF900C94AD
:100BB000D60D4F925F926F927F928F929F92AF92DB
:100BC000BF92CF92DF92EF92FF920F931F93CF933A
:100BD000DF93CDB7DEB768970FB6F894DEBF0FBED0
:100BE000CDBF8C018FE691E00E9401048091C90184
:100BF0001C8A1B8A1E8A1D8A188E1F8A4AE0BE0123
:100C00006F5F7F4F90E00E94200BBE016F5F7F4FB0
:100C1000CE0143960E94A3054F89588D6B897C892C
:100C20008AED91E00E94EC028DE391E00E940104C4
:100C30008B899C89009711F00E94870C8BE791E0CB
:100C40000E940104C8010E94520486E891E00E94BB
:100C5000650460917F027091800280918102909181
:100C6000820228EE422E23E0522E612C712CA30129
:100C700092010E94C30B60E1862E6EE0962EA12C9D
:100C8000B12CCA01B901A50194010E94C30BECE388
:100C9000CE2ED12CE12CF12CA70196010E94C30B82
:100CA000862F0E94680587E991E00E9465046091A3
:100CB0007F02709180028091810290918202A30153
:100CC00092010E94C30BCA01B901A50194010E94BF
:100CD000C30BA70196010E94C30B822F0E946805D7
:100CE000C80165E070E00E94AF0B892BE1F48091B0
:100CF000C90160E0882381F188E00E941A0160E068
:100D000087E00E941A0164E670E080E090E00E94B3
:100D1000B90260E088E00E941A0161E087E00E9469
:100D20001A011092C9018091C90168960FB6F89412
:100D3000DEBF0FBECDBFDF91CF911F910F91FF900E
:100D4000EF90DF90CF90BF90AF909F908F907F906B
:100D50006F905F904F90089588E00E941A0160E0C4
:100D600087E00E941A0164E670E080E090E00E9453
:100D7000B90261E088E00E941A0160E087E00E9409
:100D80001A0181E08093C901CECF60917F027091FA
:100D90008002809181029091820228EE33E040E04F
:100DA00050E00E94C30BCA01B90120E13EE040E0DF
:100DB00050E00E94C30B2CE330E040E050E00E9482
:100DC000C30BCB010E94D9058093C9018FE091E04C
:100DD0000C94F8014F925F926F927F928F929F9244
:100DE000AF92BF92CF92DF92EF92FF92CF93DF93B9
:100DF000C7E7D2E0688579858A859B8528EE422EF3
:100E000023E0522E612C712CA30192010E94C30B8E
:100E100060E1862E6EE0962EA12CB12CCA01B9019C
:100E2000A50194010E94C30BECE3CE2ED12CE12C42
:100E3000F12CA70196010E94C30BCB010E94D9059A
:100E40008093C901688579858A859B85A301920174
:100E50000E94C30BCA01B901A50194010E94C30BF2
:100E6000A70196010E94C30BE4E6E29FE001E39F25
:100E7000D00D1124C60FD71F84EA91E00E9401040F
:100E8000CE010E94520421E040EEBE018AE0DF91D3
:100E9000CF91FF90EF90DF90CF90BF90AF909F9059
:100EA0008F907F906F905F904F900C9422021F92D2
:100EB0000F920FB60F9211242F933F938F939F930E
:100EC000AF93BF938091D2019091D301A091D401AF
:100ED000B091D5013091D10123E0230F2D3758F582
:100EE0000196A11DB11D2093D1018093D201909351
:100EF000D301A093D401B093D5018091D6019091F4
:100F0000D701A091D801B091D9010196A11DB11DC1
:100F10008093D6019093D701A093D801B093D901C3
:100F2000BF91AF919F918F913F912F910F900FBEE5
:100F30000F901F90189526E8230F0296A11DB11D52
:100F4000D2CF1F920F920FB60F9211242F933F937F
:100F50004F935F936F937F938F939F93AF93BF93C1
:100F6000EF93FF93E0910201F09103010995FF9146
:100F7000EF91BF91AF919F918F917F916F915F9111
:100F80004F913F912F910F900FBE0F901F9018958A
:100F90001F920F920FB60F9211242F933F934F93EE
:100FA0005F936F937F938F939F93AF93BF93EF93D1
:100FB000FF93E0910001F09101010995FF91EF91FC
:100FC000BF91AF919F918F917F916F915F914F9161
:100FD0003F912F910F900FBE0F901F9018951F9269
:100FE0000F920FB60F9211242F933F934F935F935D
:100FF0006F937F938F939F93AF93BF93EF93FF93E1
:101000008AED91E00E946A03FF91EF91BF91AF9149
:101010009F918F917F916F915F914F913F912F9110
:101020000F900FBE0F901F9018951F920F920FB642
:101030000F9211242F938F939F93EF93FF93E0913F
:10104000EA01F091EB018081E091F001F091F10172
:1010500082FD1BC090818091F3018F5F8F7320917F
:10106000F401821741F0E091F301F0E0E652FE4F07
:10107000958F8093F301FF91EF919F918F912F9125
:101080000F900FBE0F901F9018958081F4CF109293
:10109000DD011092DC0188EE93E0A0E0B0E08093E7
:1010A000DE019093DF01A093E001B093E1018FE2B4
:1010B00091E09093DB018093DA0185EC90E09093CE
:1010C000E7018093E60184EC90E09093E90180933E
:1010D000E80180EC90E09093EB018093EA0181ECD1
:1010E00090E09093ED018093EC0182EC90E090937E
:1010F000EF018093EE0186EC90E09093F1018093F4
:10110000F0011092F3011092F4011092F501109287
:10111000F6011092A3021092A2021092A502109260
:10112000A4021092A7021092A60270E060E082EA88
:1011300092E00E947B052091A2023091A3028111CE
:1011400066C02115310519F0C9010E94870C109263
:10115000A3021092A2021092A7021092A60210926D
:10116000A5021092A4028BE080939D028CE08093F4
:101170009E0284E690E09093A1028093A00260E03A
:101180008BE00E94480160E080919E020E9448012D
:1011900060E080919D020E941A0160E080919E02B1
:1011A0000E941A0181E090E0A0E0B0E08093770215
:1011B00090937802A0937902B0937A0210927B0206
:1011C00010927C0210927D0210927E0210927F0299
:1011D0001092800210928102109282021092870275
:1011E000109288021092890210928A0210928F0245
:1011F0008093900210929C0210929B0210928302A4
:101200001092840210928502109286020895109224
:10121000A7021092A6026FE371E0C9010E94D60DE9
:10122000A2CFCF93DF9300D000D0CDB7DEB77894B4
:1012300084B5826084BD84B5816084BD85B58260DB
:1012400085BD85B5816085BD80916E00816080938C
:101250006E001092810080918100826080938100F5
:101260008091810081608093810080918000816005
:10127000809380008091B10084608093B100809160
:10128000B00081608093B00080917A008460809388
:101290007A0080917A00826080937A0080917A004F
:1012A000816080937A0080917A00806880937A00D0
:1012B0001092C100E091EA01F091EB0182E080839D
:1012C000E091E601F091E7011082E091E801F091F0
:1012D000E9018FEC80831092F201E091EE01F09130
:1012E000EF0186E08083E091EC01F091ED018081D7
:1012F00080618083E091EC01F091ED018081886054
:101300008083E091EC01F091ED0180818068808321
:10131000E091EC01F091ED0180818F7D808362E0AE
:1013200082E00E94480162E083E00E94480161E09F
:101330008BE00E94480161E08CE00E94480161E07E
:1013400088E00E94480161E087E00E94480160E077
:1013500085E00E94480160E086E00E94480160E06C
:1013600088E00E941A0160E087E00E941A0185E08F
:101370000E94F1009093CE018093CD0183E794E029
:1013800090930101809300018091690083608093B4
:101390006900E89A88E080939F0219821A821B8272
:1013A0001C82CE0101960E94F80183E191E00E9427
:1013B000F80100E010E080910401882309F471C075
:1013C00085E00E94F1009093D0018093CF0120919D
:1013D000CD013091CE018217930709F445C00197E2
:1013E00009F042C086E00E94F1002091CC010197F3
:1013F00009F449C02F5F2093CC016BEA71E082EAC7
:1014000092E00E94A3058091CC01882309F441C099
:1014100090E08131910514F080E190E08093CC015F
:10142000682F70E07093CB016093CA01803199F509
:1014300087E191E00E94F8018EEA91E00E940104A8
:101440004091A6025091A7026091A2027091A3025E
:101450008AED91E00E94EC028AEB91E00E94010487
:101460008091CC010E9468058091CF019091D001BC
:101470009093CE018093CD0161E070E080E090E038
:101480000E94B90298CF21502093CC016AEA71E002
:10149000B6CF81E0C3CF20E040E08AE00E94220284
:1014A000CBCF8091040181117AC080918F0281118C
:1014B0006FC08091900281116BC02FB7F89480911A
:1014C000D2019091D301A091D401B091D5012FBF49
:1014D00040917B0250917C0260917D0270917E026E
:1014E000841B950BA60BB70B4091770250917802A5
:1014F0006091790270917A0284179507A607B70761
:1015000008F446C080919B0290919C028230910524
:1015100009F051C080917F0290918002A0918102D8
:10152000B0918202892B8A2B8B2B09F472C00E9406
:10153000C00080917F0290918002A0918102B091C1
:101540008202409177025091780260917902709105
:101550007A02841B950BA60BB70B80937F029093A6
:101560008002A0938102B09382022FB7F8948091F9
:10157000D2019091D301A091D401B091D5012FBF98
:1015800080937B0290937C02A0937D02B0937E02B5
:101590001092900280918F02811110928F0201159A
:1015A000110509F408CF0E945603882309F403CFDC
:1015B0000E94000000CF0197B9F540917F02509141
:1015C00080026091810270918202809187029091E5
:1015D0008802A0918902B0918A02481759076A07C8
:1015E0007B07B8F40E94C00080917F029091800236
:1015F000A0918102B09182024091770250917802CD
:101600006091790270917A02840F951FA61FB71F0F
:10161000A4CF0E949C00E0918D02F0918E02309741
:1016200009F4A3CF0995A1CF0E94C0009ECF80915D
:10163000A2029091A302009711F00C94870C0895D8
:10164000BB274A3031F4992322F4BDE2909581956D
:101650009F4F0C942C0BBB27FB015527AA27880F03
:10166000991FAA1FA41710F0A41B83955051B9F716
:10167000A05DAA3308F0A95DA193009779F7B11195
:10168000B1931192CB010C94450BDC01FC01672F47
:1016900071917723E1F7329704C07C916D93708349
:1016A0006291AE17BF07C8F308952F923F924F92F1
:1016B0005F926F927F928F929F92AF92BF92CF92E2
:1016C000DF92EF92FF920F931F93CF93DF93CDB7EB
:1016D000DEB7CA1BDB0B0FB6F894DEBF0FBECDBF63
:1016E00009942A88398848885F846E847D848C8434
:1016F0009B84AA84B984C884DF80EE80FD800C813D
:101700001B81AA81B981CE0FD11D0FB6F894DEBF1F
:101710000FBECDBFED010895A29FB001B39FC001E0
:10172000A39F700D811D1124911DB29F700D811D0D
:101730001124911D0895AA1BBB1B51E107C0AA1FCC
:10174000BB1FA617B70710F0A61BB70B881F991F62
:101750005A95A9F780959095BC01CD01089597FB06
:10176000072E16F4009407D077FD09D00E949B0B3A
:1017700007FC05D03EF4909581959F4F0895709594
:1017800061957F4F0895A1E21A2EAA1BBB1BFD0194
:101790000DC0AA1FBB1FEE1FFF1FA217B307E40750
:1017A000F50720F0A21BB30BE40BF50B661F771FA8
:1017B000881F991F1A9469F7609570958095909588
:1017C0009B01AC01BD01CF010895EE0FFF1F0590F5
:1017D000F491E02D09940F931F93CF93DF93823000
:1017E000910510F482E090E0E091AA02F091AB0242
:1017F00030E020E0B0E0A0E0309799F42115310509
:1018000009F44AC0281B390B24303105D8F58A81E8
:101810009B816115710589F1FB0193838283FE0130
:1018200011C0408151810281138148175907E0F0AE
:101830004817590799F4109761F012960C93129774
:1018400013961C933296CF01DF91CF911F910F9188
:1018500008950093AA021093AB02F4CF211531052D
:1018600051F04217530738F0A901DB019A01BD017D
:10187000DF01F801C1CFEF01F9CF9093AB02809364
:10188000AA02CDCFFE01E20FF31F81939193225064
:10189000310939832883D7CF2091A8023091A9023A
:1018A000232B41F420910701309108013093A902C4
:1018B0002093A802209105013091060121153105E0
:1018C00041F42DB73EB74091090150910A01241B04
:1018D000350BE091A802F091A902E217F307A0F4FA
:1018E0002E1B3F0B2817390778F0AC014E5F5F4F76
:1018F0002417350748F04E0F5F1F5093A9024093FD
:10190000A802819391939FCFF0E0E0E09CCFCF932A
:10191000DF930097E9F0FC01329713821282A091C5
:10192000AA02B091AB02ED0130E020E01097A1F4E3
:1019300020813181820F931F2091A8023091A9024A
:101940002817390709F061C0F093A902E093A802B3
:10195000DF91CF910895EA01CE17DF07E8F54A81BC
:101960005B819E0141155105B1F7E901FB83EA83D3
:1019700049915991C40FD51FEC17FD0761F480817F
:1019800091810296840F951FE90199838883828152
:1019900093819B838A83F0E0E0E012968D919C9185
:1019A00013970097B9F52D913C911197CD010296AF
:1019B000820F931F2091A8023091A902281739079E
:1019C00039F6309751F51092AB021092AA02B093FB
:1019D000A902A093A802BCCFD383C28340815181C6
:1019E000840F951FC817D90761F44E5F5F4F888138
:1019F0009981480F591F518340838A819B8193832A
:101A000082832115310509F0B0CFF093AB02E0934A
:101A1000AA029ECFFD01DC01C0CF13821282D7CF74
:101A2000B0E0A0E0E6E1FDE00C94570B8C010097DC
:101A300051F4CB010E94EB0B8C01C801CDB7DEB78E
:101A4000E0E10C94730BFC01E60FF71F9C012250A0
:101A50003109E217F30708F49DC0D901CD91DC915B
:101A60001197C617D70798F0C530D10530F3CE01CE
:101A700004978617970708F3C61BD70B2297C193C5
:101A8000D1936D937C93CF010E94870CD6CF5B01DD
:101A9000AC1ABD0A4C018C0E9D1EA091AA02B091F9
:101AA000AB02512C412CF12CE12C109731F5809197
:101AB000A8029091A9028815990509F05CC0461604
:101AC000570608F058C080910501909106010097D3
:101AD00041F48DB79EB74091090150910A01841BD2
:101AE000950BE817F90708F055C0F093A902E093A9
:101AF000A802F90171836083A0CF8D919C91119709
:101B000012966C90129713967C901397A815B905AE
:101B100059F56C0142E0C40ED11CCA14DB0420F15B
:101B2000AC014A195B09DA011296159780F06282BE
:101B3000738251834083D9016D937C93E114F10446
:101B400071F0D7011396FC93EE93129776CF2296FD
:101B50008C0F9D1FF90191838083F301EFCFF093E8
:101B6000AB02E093AA0269CF4816590608F42C018B
:101B70007D01D3019ACFCB010E94EB0B7C01009732
:101B800049F0AE01B8010E94CD0DC8010E94870C3A
:101B9000870153CF10E000E050CFFB01DC0102C011
:101BA00001900D9241505040D8F70895FB01DC019F
:101BB00001900D920020E1F7089510E0C2E6D0E018
:101BC00004C0FE010E94E50B2196C336D107C9F778
:041BD000F894FFCFB7
:101BD400EB02EB02010000AC0280005E3F54795C32
:101BE4005C5C5C7C5C5C70000654713F065B4F6619
:101BF4006D7D077F6F777C395E7971000000008C02
:101C040003EC021903D9034A0328033C030D0A0019
:101C140054696D6520696E70757400436F756E74D8
:101C2400646F776E00496E66696E697465204D6FE6
:101C340064650074696D657320646F6E652100438B
:101C44006C6F636B776973653A200074696D652006
:101C54007661723A200074696D6520696E2053655F
:101C6400636F6E6473200074696D6520696E204D26
:101C7400696E200074696D65200043435700446910
:101C840072656374696F6E3A2000207C20436F751F
:081C94006E7465723A20000035
:00000001FF
